:10100000FFFFFFFFFFFFFFFFFFFFFFFFFFFFFFFFF0
:2010100000420020B994000039B3000039B3000039B3000039B3000039B3000039B3000089
:1C10300039B3000039B3000039B3000039B3000039B3000039B30000D3B7000092
:20104C002DE9F04FADF1C40D05F05CFFB14D05F1280005F16C0105F0FBFBDFF8BC82E860A9
:20106C0041460BF0B4F80820ADF820000120ADF8220008A809F09CFA9DF8240068700A98EF
:20108C0005F134040021A860204609F007FE4FF47A720023A1492C6105F188000424009486
:2010AC0007F030FF1F20012108F080FF012621468DF8A7100020ADF8700004468DF8A66052
:2010CC000821ADF872100DF1A602ADF876406420ADF878004FF4487140F20530ADF8741086
:2010EC00314601F04DFF40F2063002211CAA01F047FF05F14E024FF442701B2101F040FF01
:20110C0005F1400240F207300E2101F039FF4FF4447031460DF1A70201F032FF40F2113020
:20112C0002210DF1720201F02BFF40F2123002211DAA01F025FF40F2133002210DF1760272
:20114C0001F01EFF4FF4457002211EAA01F018FFB649032008F02AFD0620A02108F026FF45
:20116C000720A02108F022FF0820A02108F01EFF0920A02108F01AFF1B9437468DF8A860B0
:20118C0003208DF8A94004218DF8AA001BAA8DF8AB704FF4816008F0EFFE4FF480602AAAF9
:2011AC00394608F0E9FE40F202400DF1A902394608F0E2FE40F203400DF1AA02394608F0BB
:2011CC00DBFE40F206400DF1AB02394608F0D4FE032009F08BF8042009F088F8AF48B04A91
:2011EC00132108F0D5FBAF4E38461121721D05F049F802200521324605F044F805203246E7
:20120C00014605F03FF80320132106F1280205F039F804203246014605F034F80620122154
:20122C0006F1160205F02EF8042708209E4EADF82C003078ADF82E7080000C900BA809F0B5
:20124C00B7F900280CBF0D98201C9849486138B109F0CCFF9548964A0621183008F098FB10
:20126C0094489249886009F027FE2146924F00919249642243F69823381D07F043FE904C0E
:20128C00002044218146207006F0FAFA08B14FF001095FEA090046D08A4D1F200222294669
:2012AC000AF012FE00283CD029880806000C40EA2120782834D11020288029460220024658
:2012CC0009F094FC68B30220294602460AF0FCFD38B329880806000C40EA2120B0F5805FED
:2012EC001ED10020288029460220024609F07EFCB8B10220294602460AF0E6FD88B12988D6
:20130C000806000C50EA212028800AD10AF05EFE012009E020050020BD76000059B90000BF
:20132C0028800AF053FE0020217810B141F0010020700020432106F0A3FAFE200DF17A01C4
:20134C0002220AF0C1FD18B3BDF87A00BDF87A1045F249470006000C40EA21208742ADF8BA
:20136C007A0015D1FF200DF17A0102220AF0ACFD70B1BDF87A00BDF87A100006000C40EAD7
:20138C002120B0F5805FADF87A0008BF012700D000270AF01BFE207817B140F00200207042
:2013AC007721002006F06CFA002843D0D0202BA901220AF089FD00283AD09DF8AC00582878
:2013CC0036D1F5202BA901220AF07EFD00282FD09DF8AC0000282BD155208DF8AC002BA973
:2013EC000122F42009F002FC10B3F4202BA901220AF06AFDE0B19DF8AC00552818D1B62076
:20140C008DF8AC002BA90122E02009F0EFFB78B1F4202BA901220AF057FD48B19DF8AC00F9
:20142C0030B90AF0D3FD012005E0C046EDC100000AF0CCFD0020217810B141F0080020702D
:20144C0007F07AFC18B1207840F00400207006F045FF18B1207840F0100020700AF0ACFBE2
:20146C00DFF8788180B308F065F801200C2106F007FA4046FF22011D0A7000202E91012282
:20148C000AF022FD38B198F80400482803D10AF09DFD01201EE00AF099FD1AE0F40F002006
:2014AC00CCCA0000C8C400006C09002070140020C0CA0000AFC100002029002029B9000080
:2014CC00982900207C2900200AF080FD4046011D2E910020217810B141F02000207004F031
:2014EC0067F8051C01D007F06BF9207815B140F040002070D14988707F2814BF0A200F20F1
:20150C00052107F08FFF03F08FFC002840F0A28004F04EF85FEA000900F09380C748314EFF
:20152C0000252F46C4682C97B9F1000F4DD0C5F30C004FF0000A08B94FF0010A48B92046C1
:20154C000F21012208F01CFE204600220A2108F017FE05F5802006F0DBFD0024B9F1000F15
:20156C0020D01F4861194FF4807205F0D7F81C4A60194FF4807100F5802006F047F95FEA6E
:20158C0000090BD0DFF858B04FF480771BF8011B2C9809F0FDF87F1E2C90F7D104F5807453
:2015AC00200BDBD0A548C068BAF1000F044608D00F21002208F0E4FD204601220A2108F081
:2015CC00DFFD05F58055680CAED0B9F1010F0BD04FF4F42006F09CFD31E0C0468417002015
:2015EC00282600201826002020460A21002208F0C7FD2C98002109F0CBF8002109F0C8F829
:20160C0004464FF4F42006F083FD34800027B7810422B2734FF6FF7070803D46B5804FF4AA
:20162C000043F380FF24F47346273772102177723246B7724FF4F420F77206F0E7F807F001
:20164C00BFF87E488078B9F1010F03D07B4920F040008870C64E08200427ADF83800307884
:20166C00ADF83A7080000F900EA808F0A1FF00280CBF10980020C54DA86038B109F0B6FD38
:20168C00C34A05F12000082108F082F96868C14910B90C460C346C600C4632200027DFF8DC
:2016AC0024A3A0803E468AF800703D46267008F11C01E57008F1280005F0CAF8C549C8F897
:2016CC0014000AF084FDC8F8185004F01DF920B109F0B4FCC048C8F8180002200521012278
:2016EC0009F0F4FDBB46CDF800B0BC49A38804F124004FF47A7207F005FC042708209C4ED1
:20170C00ADF844003078ADF846708000129011A808F04EFF00280CBF1398281CCA4E7060E7
:20172C0038B109F063FDC94A30460521083008F02FF90AF04BFAC74FC549CDF800B06422F6
:20174C004FF47A7307F1080007F0DCFB03200AF015FA28B13948C649C64AC06809F030FA8F
:20176C00834D08200426ADF850002878ADF852608000159014A808F01BFF00280CBF1698BB
:20178C005846C849886038B109F030FDC548C64A05210C3008F0FCF8C44EC249301D48601A
:2017AC00012535705846707007F05EFEC04DC14A072105F1200008F0EBF8DFF8FC926B6818
:2017CC000BB94846686006F093F8694880783E464D4660BB664919480F463B461C3097F8C6
:2017EC0001A093F803904862182009F00FFD071C1DD004215A460AF011FA504609F00CFCC6
:20180C005B4B3872584687F809901A461946B87203F14800F86002F15800386101F1200043
:20182C00786109F003FDA54A394608F0DDF90C2009F0ECFC071C0FD002E0C0462005002052
:20184C00012104220AF063FBCA482030B86009F0EDFC394609F088F9C648C749C0680AF047
:20186C00B6FCC34B186841F2883242F210774FF47A71B1FBF0F189B22C91B2FBF0F12D9175
:20188C00B7FBF0F02F900820ADF808000A27ADF80A704FF0FF33039302A808F089FE00286E
:2018AC0040F0EE8400201A900827ADF85C700923ADF85E3017A808F07BFE199F00281A97F0
:2018CC0040F07782BDF8600010280ED1A9489DF862104078884208D139460878B02804D1A8
:2018EC0001F10800097909F0EBFD1A98002800F060820820ADF8100005970323ADF812304D
:20190C0004A808F055FE54E29A480769384609F0A9FE874208BF002702D0876809F092FF1C
:20192C00381CB94600F0458299F800707F1E00F0C5817F1E40F0328299F8011099F8020007
:20194C00091F00F05B81C91E00F08680491F11D0491E40F02382012806D0022840F01E822C
:20196C00CD480AF08BFC19E2CB480AF085FC15E26C090020002833D1CF49002008F068FCF0
:20198C002F7E012F08D97F1F1ED007E240130020E4CA0000AC160020012F04D10AF00CF901
:2019AC00002800F0FB81287E697E05F069FF002800F0F481287FAA7EBF4909F017F90AF036
:2019CC0005FBEBE196290020E869AA7EBA4904F0A5FEE3E1B1BB000099B2000041B90000C8
:2019EC00012823D0022840F0D98102200DF1860108F02EFC7E209DF88670E8619DF88710A4
:201A0C002F76052F697614BF02200420C949A876A87E8DF8860009680DF187070DF1860205
:201A2C0001203960052108F02BF8B7E101200DF17E0108F00DFC9DF87E00BE490DF17F07CA
:201A4C00A87638680860A9E1B0150020FCCA00008D660000DC1800201449097801280BD036
:201A6C00002837D10F48114A0078507032E0C0460060004103000081022921D0AE490020D0
:201A8C0008F016FB3B48C0680A210022074608F077FB002238460F2108F072FB09F020FA3A
:201AAC0016E0C04654150020D8CA00001C1A0020E0130020F0CA0000EC170020F9C10000F3
:201ACC000AF08AFACC4948709B49002008F0F0FAC9480178012940F061812648C64BC76855
:201AEC005878400834BF002201220A21384608F047FBC1484078800834BF002201220F21F6
:201B0C00384608F03DFBBC484078C00836D3B8480760002003F062FF022008F0F1FDB348A0
:201B2C00B14F0068B3490268A7F10C009047B048006815211722074609F02CF807B3AA486B
:201B4C000146006845F6C0530F4620F0010008603A46FB610021D16242F6E0637B621946C7
:201B6C00916200237B63106840F00100386007E0B8CB000020050020BD76000009F0B0F9A0
:201B8C009D4840780009C0F0098103F011FD002800F00481C948D0F80CB00027C7F30C0039
:201BAC004FF0000A08B94FF0010A48B958460F21012208F0E5FA584600220A2108F0E0FA3F
:201BCC00384606F0A5FABD48C068BAF1000F834608D00A21012208F0D3FA584600220F215B
:201BEC0008F0CEFA07F58057F80CD7D058460A21002208F0C5FA06F0E3FDCFE0A788401EE7
:201C0C0027D0401E40F0CA8002200DF1AD0108F069FABA480AF04CFB4FF0000A08B14FF03C
:201C2C00010ABAF1000F02D0B44809F0BFFB2C984743B24839460AF041FBB04839460AF0E4
:201C4C003BFBBAF1000F00F0A980AC4809F081FFA4E00AF0C1F9400920D3E088FF281FD010
:201C6C0001201FA908F03EFABDF87C0010F07F0F09D0022004F064FB09F09EFF30B12D98F6
:201C8C0005F0A6FE02E0002004F05AFBBD4A0120022106F009FC08E024290020FF20E0803A
:201CAC000120FF21022209F011FB00201222014609F00CFB72E0C0460C1800204778781E22
:201CCC003CD0401E20D0801E012830D9801E02D0801E24D060E0AA480AF01EF810B9A848D1
:201CEC000AF0CAFA7548C0680A210022824608F047FA002250460F2108F042FA0022152173
:201D0C00504608F03DFA47E09D480AF005F810B99B480AF0B1FA002009F030FE3CE009F042
:201D2C0021FE6648C0680A2101228246E8E709F019FE31E0081800201D1A00200F200521B0
:201D4C0007F070FB4FF441700DF18E0102F0C4FD9DF88F308DF897309DF890208DF89820BF
:201D6C0000218DF89A109DF88E008DF896000B469DF893208DF8993000208DF89D209DF8EB
:201D8C0092109DF891308DF89C100DF196028DF89B30082104F076FA484807700820ADF8C7
:201DAC001800CDF81C900527ADF81A7006A808F0FFFB424800690AF0B1F800283FF4A4AD51
:201DCC007078410829D320F0010070700A20014607F028FB03F028F880B93848C0680A212F
:201DEC00012208F0CDF917E00C000140C8010010A01A00200A0000041C1A00202F48C068FC
:201E0C000F21012208F0BCF9C14B4FF482204FF480524FF4F03198477078810808D320F011
:201E2C000200264F70703878062801D106F018FC3078B178884233D009F002F8B77830781D
:201E4C00790803D341083CBF0021B180B90803D381083CBF0021F18018490978022903D1FB
:201E6C0009F08CFDB7783078B90809D3810807D212490978062903D006F0F2FBB778307866
:201E8C0010F0030F0CD05FB99F4809F045FF30B99D480AF0F1F90020F0800746B78030789E
:201EAC00B0709C480778002F00F0DA81E08810F07F0F00F07F0900F0D08101E02005002044
:201ECC0000208DF8AE0009F077FEC8B1FFE70120682105F0D5FC58B13A200DF1AE01012233
:201EEC0009F0F2FF10B900208DF8AE000AF06EF89DF8AE109DF8AE00A17005E0D0160020DE
:201F0C000AF064F80020A07080490F781FB92178022940F00681E178C20935D240083ED308
:201F2C0009F04AFE88B10120682105F0A9FC70B1BC494320062209F0C7FF07460AF046F8E2
:201F4C002FB1B84809F04CFE01E00AF03FF809F033FE88B10120682105F092FCF8B1B2490C
:201F6C003B20062209F0B0FF07460AF02FF8B7B1AD4809F035FE12E00AF028F80FE0C04632
:201F8C00A8050020B2160020491CC8B20228E07005D1A08842F21071B1FBF0F0A060277849
:201FAC005A490020022F087040F0BB80E088C009C0F0B78009F000FE002800F0AD800020CA
:201FCC0088F801006821012005F05AFC22200DF1AF0101228DF8AF00372008F007FE10B91B
:201FEC00052088F8010009F0F1FF98F80170002F40F0978001200C2105F042FC02200DF12E
:20200C00AF01012209F060FF002840D09DF8AF0040083AD303200DF19E01072209F054FF83
:20202C0088B39DF8A40000092BD27E4F9DF89F109DF89E009DF8A1209DF8A33040EA0120CD
:20204C0000B2B8819DF8A07047EA0221754F09B2F9819DF8A27047EA0322724F12B2B8F964
:20206C000A303A825943B8F90870B8F90C3078436C4F00125A43B8810812F88110123882DF
:20208C0008E0032004E0042002E0022000E0012088F8010011208DF8AF000DF1AF01012265
:2020AC000A2008F0A3FD09F091FF98F80170052F24D0002F35D009F07FFD80B307F03AFA99
:2020CC0078B301200C2105F0DBFB50B301202E9988F8040001220B2008F088FD2F9805F0BA
:2020EC0077FC98F80000C00919D311202E9988F8040001220A2008F079FD10E00020A060D5
:20210C00FF27277015E0C046E41800209729002001F0010096290020062088F8010009F08E
:20212C0055FF2046A7680078002F7FD1012800F094800020E0700127277003F0E5FB00287C
:20214C0000F08B80677809F037FD002867D00120682105F095FB00287FD009202E9988F8F7
:20216C00040001226B2008F041FD002857D007202E9988F8040001226C2008F037FD0028A7
:20218C004DD001202E9988F8040001221D2008F02DFD002843D040202E9988F8040001221F
:2021AC00382008F023FD002839D0C0202E9988F804000122692008F019FD00282FD02E999F
:2021CC0088F804701F20012208F010FD38B306202E9988F8040001221E2008F007FDF0B13E
:2021EC0029202E9988F8040001226B2008F0FEFCA8B132491C20012208F0F8FC78B12E9990
:20220C003A20012209F060FE09F0E0FE002088F800002949D8F8140008F042FA1DE009F0E7
:20222C00D5FE1AE0BC160020C2160020022809D0022020700027E77003F066FB10B1484605
:20224C0003F09CFCE088000A02D3A068401EA0601B4A0020122106F027F91A490020087071
:20226C001948077867B101460020087007F088FD16494978814203DD1449487005F070FBC7
:20228C0013488088C108FFF4FEAA114920F004000F468880387802287FF4F5AA0D4809F066
:2022AC00EBFF3846007802287FF4EDAA0F20012107F0B8F8FFF7E7BA070006808717002024
:2022CC00BC16002096290020202900207014002020050020A80500202DE9F04F0120ADF1EE
:2022EC005C0DADF81A000827ADF8187006A808F05FF900263546C04C8DF854509DF81C00C9
:20230C006070A6700898E0614FF6FF70A082384608F07CFF5FEA00080CD00121122209F0A7
:20232C00F6FD08F083FF15A90123D94A0091414607F078FC9DF854000121DFF8588320704F
:20234C0032463346009104F1A800414606F0DAFD022104F1CC00324633460091414606F01B
:20236C00D1FD042104F1F000324633460091414606F0C8FD042031461022E07004F148005B
:20238C0004F0FAFF04F158003146102204F0F4FF2562267266720720E67204F14802102181
:2023AC00A072022007F06EFF04F158020320102107F068FF042004F12002014607F062FF9E
:2023CC0019E0A078B4F84050B4F84230B4F84420B4F8461006280ED1ADF84250ADF8443017
:2023EC00ADF84620CC48ADF8481009F047FF012010A904F041FF0A20ADF80A00ADF8087072
:20240C004FF0FF35039502A808F0D2F8002840F0E38130460C90ADF824700925ADF82650E9
:20242C0009A808F0C5F8DDF82C900028CDF8309040F0D281BDF82800102840F0C18160780A
:20244C009DF82A10884240F0BB814D4628884FF6FF71814200F0AC812B78A23B00F0918111
:20246C002E3B40F0AD81A878B046002800F05E81801E00F03681401E012840F20D81801E52
:20248C0000F0BC80401E7FD0401E60D0083800F06981801E40F06B8194F83E30A888052B9B
:2024AC00ADF834004BD001208DF83E009A4809F0E5FE94F83E00012820D004281ED0032852
:2024CC000DD002280BD00C98C188ADF836100189ADF838104189ADF83A1080892BE0B4F846
:2024EC004000B4F84250ADF83600B4F84430ADF83850B4F84600ADF83A301CE0B4F8400041
:20250C00E9888842D8BF081CADF836002989B4F842008842D8BF081CADF838006989B4F83E
:20252C0044008842D8BF081CADF83A00B4F84610A889814200DC0146ADF83C1001E08DF877
:20254C003E60B24A0DA8122107F085FF0FE1B04809F094FE6878002840F00981E888E0826B
:20256C0028892083688960836B4809F0D5FB002840F0FD80A56A002D00F0F9802B68E08A34
:20258C00218B628B9847F2E0B5F804A00A2008F03DFE5FEA00080AD00121152209F0B7FC07
:2025AC00A8F808A008F042FE414608F0DDFABA483146062204F0E0FEE68226836683A879AB
:2025CC006073554809F05AFE914809F057FE4FF001084FF6FF706379A0824BB9A8790828B8
:2025EC0014BF04200520A070404609F0DFF9BEE00320A070BBE0C0466C090020687800283D
:20260C0040D1A549281D02680A60808888800623A3706889A082E889E082288A2083688A1D
:20262C006083E878207394F83E00012818BF022808D11F2007F08EF94FF47A7141433648FE
:20264C0007F082FB95F803B0B5F80AA0142008F0DDFD5FEA000800F08D800121142209F0BE
:20266C0056FC88F808B02D1DC8F80C50A8F810A0042088F8120008F0D9FD804A414607F042
:20268C00B3FA77E0687831286AD12671042022E00DBF0000B9B900006878002860D1A87862
:2026AC00618AA278032811D02079657921B9012814BF6671267105E0054303D0724807F091
:2026CC0043FBA278072AE1D1062004E0062A06D0207910B90320A0704CE00220FBE70720B7
:2026EC00F9E7687800283BD1EB78A078E179ABB9022818D0072816D0062802D16179012975
:20270C0011D103280FD0604809F006FB58B9012009F04CF907E0C046380A00205F4A404631
:20272C0006F042FA68706878D0B920E06878B8B9564A0220102107F0BFFD554A0320102130
:20274C0007F0BAFD5648ED1C29680160AB888380544A01252846A179A57006F025FA48B181
:20276C00A77007E0A888464A102107F05BFEB8F1010F25D1606A18B3016809B3A0788847BE
:20278C001EE0687913281BD12889012808D1A07B022805D11E4809F071FD06F097FC0FE014
:2027AC00052007F0D7F80146194807F0CDFA07E06888C00B04D3374A0420014607F07CFDE7
:2027CC000C9848B1ADF810700320ADF81200CDF8149004A807F0ECFE208A657921794208EF
:2027EC0031D320F0010055EA010320822BD08DB92D49207A8DF84A00657A8DF84B500A6842
:20280C0013AB1A608988998007E0C046F3C100005C0A002003208DF84A00A07AE57A194A55
:20282C008DF8520006218DF853500DF14A0006F05FFE616A30B1A77021B1086810B1096894
:20284C0038468847208A810807D3184920F002002082304604F010FD208AC108FFF4CBADA8
:20286C0020F00400A57B2082681E3FF4AAAD401E7FF4C1AD06F02AFCBDE5C046FFBE0000A6
:20288C0017C200000BC20000140A0020B4090020C40900208C090020A4090020F3090020E0
:2028AC0098090020D40900209E090020AA0900202DE9F84F8046DD480122A0F130010A601D
:2028CC00D7490F68002FFCD0D74CD64AC02704F1040B1760DBF80010890804D22168090CCD
:2028EC0041F0F00100E07221E34AE44D4FF0000A82F85412A5F1D407C0F800A0A668386839
:20290C003146C0F304601628A8BF203800EB2170401C162805DA10F10A0FB8BF6FF0090032
:20292C0000E01520E64AE74F00F01F0040F4F8501080386880083ABFE348C0F800A041F020
:20294C004061E24AA946C80E8F0EA9F13C0580F0010000F00100106087F0010000F0010026
:20296C0090602868C0F38367C0F38F21B00C22D246F3072000280BD542425046490805D172
:20298C007F0806BF0127391C4FF6FF71521EF5D1002810DD4FF6FF72490041F001018A4264
:2029AC0007D27F0047F001070F2F92BF01210F27111C401EF0D141EA0741182007F0ACFBF8
:2029CC0028682F68C34DC0F3870140F2FF32534607F0030041EA002188B22C210090A5F18A
:2029EC00400006F0BBFB4D46A5F110073868C0F30D011C2007F090FBB54957F8080C0140DE
:202A0C0000F07C400143142007F086FB57F80C1C01F47C000904090C0143102007F07CFB22
:202A2C0057F8042CDBF80010C2F30350C2F30343490812D221680C0510EB247003D41028B8
:202A4C00A8BF0F2000E05046090413EB217303D4102BA8BF0F2300E0534643EA001302F465
:202A6C007F4002F0FF01B8F1220F40EA034041EA000124BF02F0804211430C2007F04CFBD1
:202A8C00B8F1220F32BF01202868C0F30070914CB8F1220F4FEA400040F0200084F8090185
:202AAC0026BF2868C0F3407001208B4FB8F1200F40F0100084F8090138BF514606D3396891
:202ACC00C80C00F44070C1F384510143282007F023FBB8F1200F26BF3868C0F30150504651
:202AEC00B8F1220F4FEA400040F0600084F80C0126BF2868C0F3C0605046B8F1220F4FEA6D
:202B0C00C00040F0800084F8010126BF2868C0F345505046B8F1200F4FEA800040F47C40E7
:202B2C00A4F89C0138BF6D490AD3386801038A15920501F47C1100F00F00114341EA0031BB
:202B4C00082007F0E9FA4F464FF480002060A7F1D000816D40F20F226FF31F418A4213D95C
:202B6C0001680068C1F30363C0F3034003B15B1E072805D006280EBF0720801C00F00F007A
:202B8C003D4943EA00100870C6F381435B1E02D05B1E27D022E03968880C1FD24FF480408B
:202BAC0020604F48D0F802204B0A03F0800322F08F021343C1F303321A43C0F80220D0F85C
:202BCC0001300A0A62F30303C0F80130026801F0E70322F0E70243EA020102E04FF000418E
:202BEC0020460160DBF80000C0F3C0030BB94020A0624FF4007020642868C0F3C14040F0E8
:202C0C00300084F8C800C6F381503A4E4FF04008B0B3401E0CD0401E29D0022128E0C04676
:202C2C009402224300600C40AC3F005040100940012008F053FC05460420294606F03CF99C
:202C4C00042008F04BFC8542FAD12648056825F07F4007F0F5FC3046143000680368072127
:202C6C004FF06022280E98474FF4806020600321042006F021F90AE0026008408C130050F4
:202C8C000420012106F018F9174807F0D9FC203F38681649164B47F6180500F03F0084F8EC
:202CAC00CB0F32460D8018681068C168022088471248114FC0F8008001213960BDE8F88F3E
:202CCC006E6208400000094094042A4300002043FCFCFC0040A00C409813005000803F4005
:202CEC000A600840A83F0050BD37860070B00C402C200940A00100109404604200600C40CD
:202D0C002DE9FE43974C0F460546F80B80F00081B80880F0ED80B80F6ED2A07A00284FD1D3
:202D2C0038094FD30025012665708F48267209F00BF98E492A4604F1600009F07EFA6079B1
:202D4C00012821D1A079F8B9DFF82482E669D4F81490D8F8000078B108F006FFA0EB0900BC
:202D6C004346000B8619A0611868B6EBC01F24BF281CE0610AD2E66104F1BC004FF0005147
:202D8C0008F080FE284619E06671284640F60903A38694F8413003F0F00343F0010384F804
:202DAC004130E58694F840302A4603F0F00384F84030704EA26304F134013160606118E0B6
:202DCC00380914D2B80BC0F0C48004F1240009F051FA061C08D0706830B17568F068B6F915
:202DEC001C1000222023A84727F40057B1E00020A07227F00807ACE0A968088840F602087F
:202E0C00804507D00A8B4FF61F60104040F43470088306E00A8A4FF61F60104040F4347098
:202E2C0008826069D0B1042008F058FBB0B108F09BFE6169814226BF401A401E401A000BC2
:202E4C00E860688AE968401840F6C411E860814203D340F2EE22824200D9E960AE699EB109
:202E6C004548B04210D094F8410010F00F0F0BD1698C08F10700884206D128466FF48071C8
:202E8C0000224FF00073B0473C4904F16000002209F0D3F9A07958B10220ADF80000684603
:202EAC0007F092FF0026A671BDF80800A4F85C000120607020794FF00008401C207104F1D9
:202ECC00200084F8078009F0D5F9002808BF47F0020702D0192008F05FFF6E692EB141462F
:202EEC0028464FF080630A46B04727F0005730E004F12C05284609F0BDF902F091F8284645
:202F0C0009F0B8F927F0020708B147F0020720E009F086F8014604F1280009F0ABF906461E
:202F2C00B569A80810D27EB125EA0500B061084609F080F9706850B12A46F068B6F91C1045
:202F4C0075680023A84702E0084609F073F927F4804727B104F1BC00394608F093FDBDE8CA
:202F6C00FE83C046280D0020595C000091B000008829002000100440F7730000214B000078
:202F8C00F8B5A0F2013517460E46022D40F214818A4A8B498B4B2D1F0F2D04D9143D4AD0BB
:202FAC00AD1E1CD011E0DFE815F0C300BC00F400E400B300AB000701A2009A001000100078
:202FCC009200880079006F006300282880F2F480022E40F0F180398806F0E8FFF8BD012EF7
:202FEC0040F0EA8015462879012800F0E58051793878507181B9002800F0DE809078012895
:20300C0000F0A980042800F0A680062800F0A380052800F0A080F8BD3878002840F0CC80C2
:20302C009078032800F0A280072800F09F80052800F09C80F8BD012E40F0BE80387801289D
:20304C0040F0BA80154605F1F00008F065FE002840F0B2802C46002004F13E0104F00CF915
:20306C00002840F0A98004F1CC0009F007F9F8BD022E40F0A18038880A28C0F29D80B0F56D
:20308C00486F00F3998015E0022E40F095803888B0F5FA7F80F290800880F8BD022E40F0FA
:2030AC008B8038880628C0F28780B0F5486F00F383801946891C0D4638E0022E7CD1388854
:2030CC00062879DBB0F5486F76DC1946F3E7012E72D1387806286FDA891F0D460EE0012ECA
:2030EC006AD13878042867DA15460B3506E0012E62D1387808285FDA15460A352870F8BD89
:20310C00012E59D13878042856DA1546093506E0012E51D1387804284EDC15460835294661
:20312C00DBE7022E48D13888154612352946B3E7012E41D11546687901283DD01179387820
:20314C00107161B9002837D09078012803D0042818BF052830D1012008F028FCF8BD3878C2
:20316C0050BB9078022818BF052825D108F0ACFDF8BD154605F1870400211F22204604F01E
:20318C00FBF839463246204603F0C8FA0020EE710EE0154605F1680400211F22204604F038
:2031AC00EBF839463246204603F0B8FA0120AE713146224605F0F8FCF8BDC0466C090020C6
:2031CC00B0090020AC0900202DE9F04F0128ADF1140D40F0F280DFF81492D9F8DC00012803
:2031EC0040F0E9800220C9F8DC0008F015FE0290012005F0FBFF20B101210646C9F8DC10D2
:20320C00D5E008F0F1FD03906E484FF00008C0F80080012008F062F9012818BFCDF8008086
:20322C0004D1404605F04AFB0120009066486E4CC0F800801934D4F8FF0F112008F0BAFE94
:20324C0000280CBF46460126102008F0B3FE08B146F002060F2008F0ADFE08B146F0040621
:20326C000B2008F0A7FE30B1584800685849006B0246088890470A2008F09CFE002840466C
:20328C0018BF01204FF0805B0BF5DC7528B128685049006B0246088890474F48012707607D
:2032AC0028688069014646F0200088474B48076008F07AFE00F001010191400815D2484870
:2032CC0008F0F4FD8246BAF1040FF8D0BAF1010F06D1DBF8D80140680246414803219047F9
:2032EC004049086820F003000860404600F080F82868D4F8FF1F806B8047019801280ED094
:20330C00BAF1010F06D1DBF8D801406802463448394690473349086840F0030008602A48A8
:20332C000760286840690146304688470B2008F041FE28B128682649C06A02460888904742
:20334C000A2008F037FE28B128682249C06A024608889047204807600322C9F8DC201F4B42
:20336C00C3F800802868406B0146304688470128F8D1042005F03AFF124807601A48D4F80C
:20338C00FF1F01688909FCD30098012802D1384605F094FA08F002FE082005F027FF06461D
:2033AC000398C9F8DC7007F009F804F069FF029807F0E6FD02E0042600E00126304605B053
:2033CC00BDE8F08F0C40094000022243B80100105EC400005AC40000282008608001044340
:2033EC00004003402422084014100940241100202DE9F84FDFF8ECB10746ABF13500DFF828
:20340C00D8A10068800880F0D78007F0C9FC79490831D1F8008000254FEA28725FEA985146
:20342C0002F101020AD2C0F13E0110F10A0F4FEAE101D8BF08218A42B8BF0A1C634BD3F8E7
:20344C007C11C1F304611629A8BF20391B68C3F30443162BA8BF203B99465118162905DAD2
:20346C0011F10A0FB8BF6FF0090100E01521584B584E01F01F0242F4F8521A80326812F01E
:20348C00030F18BF0125D20828BF45F002050FB145F00405524692F90730C31A052B04DAD1
:2034AC009379AB4208BF918866D0DFF830E10F28A0F10F0C25DB0CEB0013A3F1F00C4FEA53
:2034CC002C26072E88BF07263446062C88BF06245EF82470042303EB84037446E358DB1B57
:2034EC0003F0FF04EF0824BFC3F307273C44AF0824BFC3F307473C446F0828BF04EB1364AA
:20350C0001E0002426465EF826E0EF080EF0FF0324BFCEF307273B44AF0824BFCEF30747E1
:20352C003B446F0828BF03EB1E63A4B2ACEB0626A9EB01017443002904F1800403EB142306
:20354C00D8BF0121342408F0FF074C43A1B27943B1FBF3F14FF6FF738B4238BF191C8028CA
:20356C0089B2918005DA10F1800FB8BF6FF07F0000E07F20D0719571194800681F291060E8
:20358C004FF0000008D340F2FF128A4206D24908401C8A42FBD301E01F219180124F0F39FC
:2035AC00090940EAC10047EA0001CBF8FB1F0026CBF8FF6FBDE8F88F0C490D4F52460820FF
:2035CC000F60921D1070BDE8F88FC0463C1100506E620840242208408C2900209C130050F8
:2035EC00082009403500094000E7A48030100940FDFDA400AC3F00502DE9F0411C4615465F
:20360C008C4208BF854282BF00230022E5E0002C08BF002D0AD100290EBF00286FF000007F
:20362C006FF0000100F0E1F8BDE8F0815FF000085FF0000E002C08BF8D429CBF2C1C002501
:20364C00070C47EA01470E0CB44208BFBD429EBF5FEA044444EA15445FEA0545070A47EAB2
:20366C0001670E0AB44208BFBD429EBF5FEA042444EA15645FEA0525470847EAC1774E080C
:20368C00B44208BFBD4200F29380870847EA81778E08B44208BFBD427CD8C70847EA417747
:2036AC00CE08B44208BFBD4266D8070947EA01770E09B44208BFBD4250D8470947EAC167D1
:2036CC004E09B44208BFBD423AD8870947EA81678E09B44208BFBD4224D8C70947EA416718
:2036EC00CE09B44208BFBD420DD8E60146EA5566EF01B14208BFB84201D3C01BB14158EBEC
:20370C0008085EEB0E0EA60146EA95664FEA8517B14208BFB84201D3C01BB14158EB0808D9
:20372C004EEB0E0E660146EAD5666F01B14208BFB84201D3C01BB14158EB08084EEB0E0EE9
:20374C00260146EA15762F01B14208BFB84201D3C01BB14158EB08085EEB0E0EE60046EA28
:20376C005576EF00B14208BFB84201D3C01BB14158EB08084EEB0E0EA60046EA9576AF00F6
:20378C00B14208BFB84201D3C01BB14158EB08084EEB0E0E660046EAD5766F00B14208BF16
:2037AC00B84201D3C01BB14158EB08085EEB0E0EA14208BFA84201D3401BA14158EB0808B2
:2037CC005EEB0E0EA34208BFAA423EBF2D0A45EA0465240A89D3734642461E4617460B4637
:2037EC00024631463846BDE8F08170472DE9F843814608F0CDFB002100B901216B4E30688E
:20380C000028FCD06C4D01242D1DEF6A346009B108F0C4FBDFF89881C7F3072008F1BC019B
:20382C00086008F0B5FB002100B9214630680028FCD02F68346009B108F0B0FBC7F3844099
:20384C00C8F8C00008F0A4FB0146002001B92046014630680028FCD0ED69346009B108F04F
:20386C009DFBC5F38120C8F8D000B9F5C061C8F8B81000F0968098F8D80068B9C8F8D41031
:20388C00D8F8C000C8F8C800D8F8BC70C8F8C470D8F8D060C8F8CC60D8F8D410D8F8BC6088
:2038AC00002954BF02206FF00100454605F1C8031A6801EB41014018411000EB917002EBC0
:2038CC00A0021A60D5F8C810C5F8C46000291CDD1E293DDDD5F8CC0030B93429B4BF153917
:2038EC001E21C5F8C81025E02A29BABFD5F8C8000B381E20C5F8C800D5F8C4003F28B4BF11
:20390C00401C3F20C5F8C4001FE0D5F8CC00032812D011F10B0FC6BFD5F8C8000B30201C0D
:20392C00C5F8C800D5F8C4000028CCBF401E0020C5F8C400032009E011F1150FC6BFD5F82F
:20394C00C8001530201CC5F8C8000020C5F8CC00B5F8C400174E30214FF47F4208230090FE
:20396C00304605F0FBFB009404214FF400321123304605F0F3FBB5F8C80004214FF4F80248
:20398C0012230090304605F0E9FBB5F8CC0020214FF440620A230090304605F0DFFBBDE8C1
:2039AC00F883002088F8D800BDE8F88300800C402411002000A00C4000A00C402DE9F04F9A
:2039CC00ADF1840D01F018F805F0A4FB0026012804D107F067FF022808BF01265F49086866
:2039EC00C0F38150012806D151F80C0C0127010E07FA01F006435A48614F007807F12C0076
:203A0C00036805F087FB03F07F03012804D107F049FF022808BF5B1C524D2B602C463BB116
:203A2C00FF2104F140001F467F1E00F8011BFBD14D4800684FF0000900F0FF01FE291BD0FC
:203A4C00DFF824C100F0FF0749460122FF2F0CD0BB427FD902FA07F73E427BD100F0FF00E2
:203A6C0047EA0909201880F840105CF8040F491C00F0FF07FE2FE9D1092001F0AFFF3A4804
:203A8C00002124220823606017A808F0FFFA4FF0010804F1240017AA8DF87480414606F000
:203AAC001FFF236843B3002794354FF0040BBA4608FA07F0064219D119EA000F04BF07F026
:203ACC00FF0141F4C04105D0E019274990F8400051F82010254801F0FDFCF8B24FF0FF31B5
:203AEC0007F00AFD2368C5F800A001E0C5F800B07F1C2D1D9F42DBD301A8002130220823CB
:203B0C0008F088FA0025FF20102101AB0990184A009504F1080006F0A3F80DA828220823B6
:203B2C00294608F0B9FA04F160000DAA1395114914952B4606F0B0F90F4951F80D0C20F4CA
:203B4C00F85040F4005041F80D0C4746C1F8FF7F0A4E376021B0BDE8F08FC046B43F00504A
:203B6C009929002008250020C8C30000007FC76721B50000A99300000D30094008000940E9
:203B8C00181300502DE9F04F6C4CE2680746880FADF1140DC0F0C2805068406808B18047D2
:203BAC00E26851685F4E886808B9CD687DB13568002DFCD00022326010B18047E068416872
:203BCC00C86800B180475E48503807F0FDF84FF00008C6F80080544846F81C0C534808F0FD
:203BEC00B3F940F60A09A4F834906379A4F83680BD6894F84000C34604F1340A00F0F00029
:203C0C0084F84000012BC4F838B094F84100A5F8028000F0F00040F0010084F8410001D180
:203C2C007B7C93B1B8680088A9F10801814205D0298B4FF60F400840288304E0298A4FF643
:203C4C000F400840288287F811803948016883680193C368406B00911022694620F078408E
:203C6C0040F0805003903348029302F057FD494600E01D466B6813B118888142F9D1C5F8FC
:203C8C0004A0687B00F0F000687304F1200008F0F1FA80680088A9F10701814220D0491CB4
:203CAC0081421DD03B8CEBB197F82C0097F82D30C7F824B000F0F00087F82C0003F0F0003D
:203CCC0040F0010087F82D0007F12002A2639AF80D00A7F8228000F0F0008AF80D0001E0AC
:203CEC00C4F8148030680028FCD0C6F80080012007F0F4FB012808D0687B00F0F00040F0A3
:203D0C00010068730C4808F01FF9B9680A8A4FF6FF3010400882B86846F81C0C05B0BDE874
:203D2C00F08FC0461C10044001010E040D2D00004C13005018000021A1830000280D0020D3
:203D4C00510007062DE9FE4F83460D46DBF80800DBF8044000902868002800F0C08008F018
:203D6C005FF9D4F8881021B108F064FA03202874B5E001212974C4F8885008F05BFA6F6888
:203D8C0008F04EF9064694F8D80060B917F0704F03D117B1042006F0B3FC022006F0B0FC20
:203DAC00012084F8D800304608F044FA0098D0F800A0DAF8040040F00200CAF80400DBF835
:203DCC000460DBF80830D5F800C01F6896F88C101FFA8CF0B7F1804F00FA01F080B2019070
:203DEC0014BF404F404F4148A96849B996F88C104FEA810900EB09018A6906F1A6010AE0CD
:203E0C0096F88C20DDF804E04FEA820900EB090212697144491EBA6080467960186800F128
:203E2C00080EC7F800E0B9684FEA0C1243F6F07CA2F110000CEA00000143B9601A68B2F189
:203E4C00804F14BF2A492B496F68B7B9D88908EB0907A6F8A600B86906F1A6028860009F97
:203E6C000A60D7F800A01A682F6802F1080E3D01103D674607EA050007E008EB0905AD6810
:203E8C008D60019DED196D1E0D60C1F804E08D6828438860D6F8A07058691969084379685B
:203EAC0009688862506A40F003005062DAF8140040F00100CAF81400207830B9616804F1D0
:203ECC006C05284601F028FF10B10120BDE8FE8F584601F09DF92846002101F01DFF0020EA
:203EEC00BDE8FE8F000500203004002040C5000010050020400400202DE9F84F9946924659
:203F0C008B46064608F08CF8604C0090B4F93210B4F930000AAF401A40F6F87101400829D0
:203F2C0080F29E80B4F9300004F59475401C6FF31F3020860820B4F93080EB7F33F07F03BF
:203F4C0004D0401E05F12005F7D1002506F1700007F02CFAC5F808B085F81EA0C5F8049096
:203F6C00A5F81C804A48EE6097E80C00202100271940104005F1100383E8030004F12000F4
:203F8C00EF770368002B5ED1294606F02DF900285FD0A6F8B880E87F40F08000E87796F82E
:203FAC00BA00012804BF86F8BA70A771607A40B1607830B10120A0726772A7712079401CF2
:203FCC002071009808F036F9606A00285BD16078002834D1E079012855D008F021F806465E
:203FEC00207A40BBA86805F0A5FD2B49294AE36809681060B0B1DD681068401BB0FBF1F061
:20400C00012898BF012104D9DB681068C01AB0FBF1F19834204608F051F9204607F099FD8C
:20402C0030462EE0304608F005F904F1BC00042107F028FD27E0194901200870F0E7192080
:20404C0007F0AAFE1FE004F12000294606F0CCF848B9B4F9300000F6FF706FF31F302086DE
:20406C006FF001080CE0A6F8B880E87F40F08000E87796F8BA00012804BF86F8BA70A771A0
:20408C00009808F0D7F84046BDE8F88F280D0020F1EFFF9F88290020B8CB0000842900200F
:2040AC002DE9FC415E4C574D574EDFF860815A4F94F8E410481E0B2861D8DFE800F07B2C9D
:2040CC0043062343062343067664042907D001220A2945F8212C14BF0220032004E02021B8
:2040EC00012045F8211C024684F8E200002045F8390C0827C5F8FF7FC5F8F37F45F8392C96
:20410C00BDE8FC81052914BF09200620002584F8E400356070E094F8E1700120383D002F15
:20412C00C5F81B0004BF0620002102D00021F160032084F8E400032045F8010C3160306834
:20414C00800859D294F8E400012503280DD00021404660220523009105F000F894F8E400C3
:20416C00062814BF0A200720D1E702200090002160220523404604F0F1FF0420C7E708F078
:20418C00B4F8BDE8FC812249002622480E60012505600E2001F04EFB022006F099FA84F8C2
:2041AC00E45084F8E360BDE8FC81002038600C2578601FE019480068006801462020884797
:2041CC002C3D41F61D560F2000214FF4C072072345F8010C4046C5F803600225009504F031
:2041EC00BDFF404600214FF4C072072305F0F2FA0120386084F8E45004F1780007F0A9FC5E
:20420C00BDE8FC8139400C4038600C4000A00C402C500C4004800C4034600C40A0010010B2
:20422C00241100202DE9F8435C4C04F1200008F021F815460E46009007F0F2FE05F00107DB
:20424C008146B6F1FF3F0CD1606A20B9B4F93200401C06B202E0606AB0F91C60002084F8C6
:20426C005F00304606F0D8FC0326002800F08A80616ADFF81C81814258D0009FB8422ED087
:20428C003FB100990A68904209D0096800290091F7D1832E41D0484607F0CCFF3DE004F155
:2042AC00980007F083F800980168AA0802D20A6802600846002202600091009818B9484633
:2042CC0007F0B8FF28E0C17F41F00401C177684607F018FB0146404605F086FFEDE704F1A6
:2042EC00980007F063F8A8083ABF206A006800202062484607F09EFF0099C87F40F0040055
:20430C00C877684607F0FEFA0146404605F06CFF009808B1A808EFD28326E079012834D097
:20432C0004F1BC00022107F0ADFB2EE0A90803D3216A009100262662C27F0121B9401143EF
:20434C00C17707F051FD0446002F14BF1148124806F03AFD484607F06DFFA80801D300989B
:20436C0020B9204606F02AF883260EE0C17F41F00401C177684607F0C5FA0146404605F06F
:20438C0033FFECE7484607F055FF3046BDE8F883540D00200100020401000104280D0020BA
:2043AC00B0B5456884684F48297BADF1180D012916D0217E627E4C4B2F7E0143009143EA20
:2043CC0002010191494937F0010718BF081CA27E1043029095F88D000322FF2811D00DE047
:2043EC00677E217E3843A37E019041F00041009143F000403E49029095F88D0001430422ED
:20440C000391FE204DF82200694605F1900002F01FFAC5F89C00002808BF00205FD0287BFD
:20442C00344951F8200001282BD02068B0F1804F14BF22220A22217ED5F89C0006F0AAFB88
:20444C002068B0F1804F14BF21220922617ED5F89C0006F09FFB2068B0F1804F14BF24222E
:20446C000C22A17ED5F89C0006F094FB95F88D10FF2933D02068B0F1804F14BF23220B2263
:20448C0028E02068B0F1804F14BF21220922217ED5F89C0006F07EFB2068B0F1804F14BF8D
:2044AC0022220A22617ED5F89C0006F073FB2068B0F1804F14BF24220C22A17ED5F89C000D
:2044CC0006F068FB2068B0F1804F14BF23220B2295F88D10D5F89C0006F05CFB012006B083
:2044EC00B0BDC046000480A0004000800004C0A00020008040C500002DE9F04F04466568E4
:20450C00A6680F46ADF1440D07F08AFD95F8DC10012903D107F08EFE002088E04FF0010BF2
:20452C0085F8DCB007F086FEF868D4F804A028B9A06890F8149090F8158003E090F80090EE
:20454C0090F80180B9F1FF0FE6D0B8F1FF0FE3D0384941EA09000D90FE230F9341EA080125
:20456C000AF198000E910DA902F072F90028CAF8A400D1D049460D2206F00CFBDAF8A4008A
:20458C0041460E2206F006FB3878287078686860387A002130220823E86001A807F03AFD02
:2045AC000694307B00270990234A0097B16801AB05F1100005F054FB01A82822082339463A
:2045CC0007F06AFD05941D49306901AA3B46079005F12C0005F060FC01A82422082339460A
:2045EC0007F054FD8DF81CB005F16000594601AA06F076F9287838B905F17C00394601AAE4
:20460C0006F06EF90E486860C5F8BC702F72C5F8C070706801F0E2F9204604F0DBFB094A75
:20462C0005F1C8000421234606F0F6FB204611B0BDE8F08F00200084354D00002188000021
:20464C007FC1000055BD0000F8B5414C201D0368B3F1FF3F08BF002304F05CFD002876D192
:20466C003C4E20683468070F04F0FF04802C28BF002404F04FFD4FF0FF3578B1401E07D0AB
:20468C00401E012802D9801E13D014E08FB112E0381C5CD0801E0ED114340BE03846401EF9
:2046AC0055D0801E53D0001F51D0401E03D1163400E00A3465B2162D49DB274827490025AC
:2046CC0001270560264E0F60264C376020680028FCD1274A161D2449244F306820F00300A9
:2046EC0001433868C0080CD2106810F0030F0AD041F003003060106800F003000328FAD19B
:20470C0001E041F001011B483160006820B11A4800681846FEF7CCF8184819490560194FDC
:20472C000A686FF35B4247EA0200086016490868C0F30130012806D10A681448104040F45C
:20474C0000320A60086020680028FCD1F8BDFEE718130050A0100050840460425C600C4085
:20476C00082204430C00684204000020B03F00500040034080012843000120438C210840DB
:20478C00482003400000390104000940FFFFFCFC2DE9F04304466568A7680E46ADF1340D43
:2047AC0007F03EFC95F8D910012903D107F042FD002084E04FF0010985F8D99007F03AFD31
:2047CC004FF00008C5F888803069286170696861307E2876307B287330782870706885F8D6
:2047EC00A480686070694146092828BF494685F88C10387B01F0F2F8204603F005FFF87E40
:20480C0085F88D002046FFF7CBFD50B9387B01F011F807F005FC85F8D98007F00BFD444651
:20482C004CE001A841463022082307F0F3FB06947879CDF80080234A0990397901AB05F184
:20484C001C0005F00DFA01A841462822082307F023FC05941C49B86801AA4346079005F19A
:20486C00380005F019FB287878B901A841462422082307F00BFC8DF81C9005F16C00414661
:20488C0001AA06F02DF8114800E0B068A86003F043F9C5F8A000287B012808D1D5F89C0053
:2048AC000B4907F094FCD5F89C0000B18460094A05F1C4000421234606F0AEFA20460DB0B7
:2048CC00BDE8F083AD640000138B00008FC10000F973000009C000002DE9F04F0C4645494B
:2048EC00CA7AADF12C0D84460592487B09900D7900958A7A488B4B8A0E7B91F805A091F8CD
:20490C0002800492B1F846E008904A7A088B0392CD7807900A7AC88A02920F6A0690CA7988
:20492C00888A01928A79E146A9F54079B9F11D0F10D8DFE809F05B5553514F4D4B494643BA
:20494C00413F3C3A380F34312E2B2923201E1C0F19181716BCF1280F49DA604604F0FAFFA3
:20496C0021E0099EB246D046CDF814801DE00898079007980690DDF818E005E03831086828
:20498C0020608888A08032E070460AE0B1F8440009E0B1F8420004E0B1F8400001E091F8B1
:2049AC003E00034612E0208021E0059804900498039001E03231E2E703980290029800900D
:2049CC0006E0019A87310DE068310BE01846EAE7009D0BE02C31D2E7276008E0583100E07C
:2049EC0048311022204601F099FE00E025700BB0BDE8F08F6C0900202DE9F041444C94F8C6
:204A0C00E700ADF1280D00286FD1394F387B01250021242284F8E7507E6884F8E60008237A
:204A2C00C4F80C6101A807F019FB002604F10C00069601ABADF814602E490796324605F084
:204A4C0089FC2D4904F1300001AB324605F082FC2A4904F1540001AB324605F07BFCB86827
:204A6C00014628468847DFF89C8025487B7B0078D8F80410C1F381571BB1032F03D184F81A
:204A8C00E150032F16D0022F14D0012F26D103201D4C009031464FF040521C23204604F088
:204AAC005DFB009531464FF400720923204604F055FB13E0022005F023FE032F0CBF4FF490
:204ACC007A7142F21071114800685434B1FBF0F1204607F0F3FB204607F03BF8D8F80000A9
:204AEC00C00802D2304605F00BFE0AB0BDE8F08180CA00005F750000496B0000097200007D
:204B0C0099290020B03F005000A00C40B8CB000024110020F8B506F0DDFE3F4E3D4F0446C3
:204B2C00A00822D3796A01B33D46002068628A69086906F108032040104340F00200886194
:204B4C000A6918689043186001F1100090E80C0030681A1C9043306005F12C0005F044FBFE
:204B6C00022105F1BC0006F08DFF786AA10814D200F110020CCA002122400B4008BF002AC9
:204B8C000BD0016985690C40B8622C434FF48041846107F1BC0006F075FF786A002837D1E8
:204BAC0007F12004204607F065FB051C30D0F868E968884226D1A86804F0BCFF17490860F6
:204BCC00E0B906F1080128690A6810430860326805F1100393E80300081C10433060002327
:204BEC003361A86846F80C0C06F1100000680028FAD0204606F086FE7D62F8BD086803F077
:204C0C0061F8F8BD07F1BC004FF4805106F03AFFF8BDC046280D00200C1004408829002042
:204C2C002DE9F0430746ADF11C0D07F047FA05F0EFFC4FF000090646CDF80C9007F0E4F92A
:204C4C0030F0010002D00398B04202D16FF0040066E078684C4658B1B0F1FF3F05D004A970
:204C6C0005F0BEFC30B1804659E04FF0FF3000E02046049006F08AFB049D4FF001082D18A8
:204C8C0002E00A463BE004937068049901F044F800282DD0684603F0E7FDD8B99DF80400AE
:204CAC0005A905F09DF988B9BB68BDF814009DF80610029A984748B1BDF814009DF80650AF
:204CCC00B881029BBD73C8463B6111E0029903A805F01EFF0498641CB0F1FF3FD4D0002808
:204CEC00D2D006F053FB2B1A02D004989842CAD2039F06F034FD06F1080547B13A4652F80A
:204D0C000C1C0029BDD1296842F80C1C2F6006F0F4FE24B1706803F009F9641EFAD14046C9
:204D2C0007B0BDE8F0837047B0B53C49446809688068496800688847394A012302F1140557
:204D4C002B6050B1217AFF2907D0FF21400921725FD2042045F8180C40E0207A002858D065
:204D6C003049401E18D0401E02D0FD3851D04DE01568D4F8B4000570D4F8B400401CC4F8AB
:204D8C00B400D4F8B8707F1EC4F8B87022D0012F39D90922022019E0D4F8B0707F1EC4F81F
:204DAC00B0701DD1D4F8B870A7B10220D4F8A83020721B7C083A012F4FEA430343F0010376
:204DCC0013609CBF0321516001D90B220A6007F0FBF9B0BD0020207204230B600220F6E718
:204DEC00D4F8AC0000781060D4F8AC00022F00F10100C4F8AC00F0D2D4F8B870002FECD1A2
:204E0C0000202072052342F8043CE7E7FF202072B0BD04F12C0004F015FCB0BDAC010010F6
:204E2C0008280040042800402DE9F043ADF1140D00F0BEFB041C69D04FF4802010216A46BC
:204E4C0003F08AFE041C5BD00098324E410F01D0864200D2002430490198314D814204D85A
:204E6C0029465639814202D249E0000B47D1002C46D02A4810216A4603F06EFE041C3FD022
:204E8C000098410F01D0864200D200240198010B35D02946814232D394B3224C002604F1DE
:204EAC0010093546C84605F580204FF480714A4603F052FE4FF4807718F8011B304605F0D2
:204ECC0067FC7F1E0646F7D105F58075A8F58078680CE8D03046002105F05AFC002105F00A
:204EEC0057FC0546224610214FF4F42003F034FE20880027A84208BF01273C4604E00024C1
:204F0C004FF4F42003F004F903F05AFC204605B0BDE8F0830050002001F00100101004003C
:204F2C00FFFF010018260020F8B5364C0D46A80846D2E80865D304F1200007F09BF90028CE
:204F4C000EBFE068C068E06041682F4A09781160416812680978914207D087692FB16FF037
:204F6C00FF0100224FF00073B847022005F0C8FB112000F033FD0120E071E168087C10B127
:204F8C006079012803D00E2000F028FDE16849681E488F680FB9CF681FB10021C1611C4F19
:204FAC0007601C4A40F2FF711160002787611A4941611A4806F0C8FF192004F021FBF8BDD4
:204FCC0004F12C06304607F055F900F029F8304607F050F925F0020504F1200158B9E808E9
:204FEC0003D2084607F046F958B104F1980006F0DDF9042101E045F0020104F1BC0006F005
:20500C0041FDF8BD280D0020D021084000100440510007060000046002000040913B0000DF
:20502C00F8B5071C72D0B86840F6030120264A1C02E04068761EF6B260B15EB10388994200
:20504C0018BF9A42F5D1F9681CC820311CC149C881E849007868BA690025BD61C8B1F87F5F
:20506C0042F00202002300F00700401E09D0401E04D0801E08D14FF0805304E04FF08043FC
:20508C0001E04FF000532A467C68F868B7F91C10A04706F0C5FF1E4C0646B4F93200401C6F
:2050AC006FF31F30608604F12C000168CD7706F029FC304607F0BEF8F868B0F9B810B4F9C3
:2050CC003220914222D1217801291FD090F8BA60BEB90668AEB1E2680E4912680968B2F1E5
:2050EC00FF3F13D0B6FBF1F2012A8CBFB6FBF1F10121703007F0E2F8F868703006F029FD37
:20510C00F8BD80F8BA50284602F0DCFDF8BDC046280D0020B8CB00002DE9F84F0029834631
:20512C00009106DD024600980021401E42F8041BFBD10098DFF8C880DFF8CC900028C8F899
:20514C0000B012DD2F48009C0768002537F8020B38B1D9F80000AE003158002088474BF89E
:20516C000600641E05F10105F0D1284F41460120D7F80080C880B8F1000F22DD4FF0000A28
:20518C0000980127002817DDABF104060446002556F8040FB0F1FF3F04D0D9F8001069585C
:2051AC00884730600021B0F1FF3F08BF01212D1D641E01EA0707EBD137B90AF1010AC2451D
:2051CC00DEDB04A006F0B0FA0D4900200860BDE8F88FC0467864632E72756E74696D652E17
:2051EC00537461727475703A20276D61785061737365732720657863656564656400C046F6
:20520C00841A002008CC00000CCC000004CC00002DE9F84306467468B56806F001FFD4F8F0
:20522C008810002963D007F005F82968486820F0020048602968486A20F003004862D4F8B3
:20524C00A07068692969084379680968C1F804052968486920F00100486128684FF001089C
:20526C00C0F82080304605F0FFFDD4F88800476806F0D6FE814694F8D80060B117F0704F94
:20528C0003D117B1042005F023FA022005F020FA002084F8D800484606F0CCFFD4F88810D8
:2052AC00087C042803D003200874D4F888102A696869D4F8A0304746104307FA00F25868C9
:2052CC000068C2622868B0F1804F14BF0A480B480F68806800258204A7EB9250401E08607A
:2052EC003046A268C4F888509047BDE8F88306F0A1FFBDE8F883C046000500203004002062
:20530C00F0B5ADF1340DFFF777FB304908682822082340F00200086001A8002106F0BCFE23
:20532C002B4E2C490524002301AA079406F1BC0004F0B2FD00213022082301A806F06AFEE6
:20534C000025FF271921244AADF81C5001AB099706F16000009504F083FC2822082301A874
:20536C00294606F099FE1D49079406F1F00001AA2B4604F091FD01A829463022082306F014
:20538C0049FE0124ADF81C40099706F17C001A2101AB134A009504F063FC12492A4606F193
:2053AC009800134604F0D6FF0F4806F0CDFD86F85F507571F57135727572B5727561B471E7
:2053CC004FF6FF70A6F85C000DB0F0BD00200940280D002001BA000091B00000017300007B
:2053EC001D8900003DAF0000354F00002DE9FE4F0CAF3D8883460E4608469846144601A95B
:20540C0005F08EFC012808BF01205FD0BDF80400DFF8BCA042F6021100274FF0FF09401AC2
:20542C0040D048F2FF21401A2BD0401E13D0401E36D1002D32D1B8F1020F2DD1207806284D
:20544C001DDAF06821880180F16855468D4231D14FF0020931E00DBBB8F1060F1CDA207893
:20546C0010280CDCF0682146424601F057F9F1685046083088421DD14FF001091DE08027AC
:20548C0018E05DB9B8F1100F06DCF0682146424601F044F9B94610E00D270BE00B2709E0AA
:2054AC000A2707E00095584643463146224602F06FFD0746B9F1FF0F07D05046001D0068D8
:2054CC0018B1016809B1484688473846BDE8FE8FE01300202DE9F0470D4606465FFA85FAF0
:2054EC00280824BF2E4845402E494FEA8A03C85885EA00023240C2F300672B4A06EA0504C8
:20550C00B043224006F4E0240243B4F5E02F01D1500E14D306F4E020074310D002F4E027F7
:20552C00B7F5A02707D0B7F5803704BF22F4003242F4A02203E022F4803242F4C022DFF815
:20554C006C80CA5008F1D00739680122002002FA0AF40C4218BF101C5FEA000906D1F00D14
:20556C0004D34146C5F3805001F80A00300E0BD306F056FD290E34BF0021211C3A68A243C2
:20558C001143396006F056FEB9F1000F06D0F00D04D34046C5F3805100F80A10BDE8F08728
:2055AC00006000A000100840FF7F077F00200240F8B5344C04F1180004F1100101F048F9AF
:2055CC000028606008BF002052D02A496CC904F124006CC02EC9002780E82E00264884F843
:2055EC002470264E6063306884F83070002808BF381C05D022480168CA6804F12401904712
:20560C00E0603E4600B10126002830D0AB208DF8000006F091FB6846012105F0A1F83E4606
:20562C0000B9012606F080FB1EB102F09FFD00B13E46C6B104F08EF8002808BF3E1C14D05D
:20564C0004F1440000E0083006683EB1017922789142F8D1417962789142F4D1A06000684C
:20566C0000B101273E46012E01D003F0A9F83046F8BDC04664C7000000093D00941A0020BD
:20568C00B0C60000E8140020F8B50F460146334C8E684D68384620383ED0401E4CD0401E3D
:2056AC0047D1287B1778012814BF2A492A49FF2F41EA070125D0D5F89C0002F005FC70BBD5
:2056CC003068B0F1804F14BF23220B22D5F89C00394605F05FFAD5F89C0095F88D1002F0B6
:2056EC000FFF287B85F88D70012813D195F8A40001280FD1D5F89C002146394304F0D0FF1D
:20570C0008E0D5F89C0095F88D1002F0F9FEFF2085F88D0000241BE0287B012802D04FF0F4
:20572C00FF3415E095F88D20214601200024114308E06FF001040BE095F88D100020044630
:20574C0041F0004185F8A400D5F89C0004F0A8FF2046F8BD0004C0A0002000800000068001
:20576C00F8B506F015FC02F079FA06F01DFC044604F00C000C284FD0E0081ED205F078FA19
:20578C00274E376805460120014605F06DFE31686943884211D2234C8220B0FBF7F0291AFE
:2057AC00204606F08BFD204606F0D3F90120FDF70BFD204605F0FAFD2FE020092CD21A48CA
:2057CC0006F074FB0428FAD01849620906D228B10A460846016821F0010104E00A46084649
:2057EC00016841F001010160D2F898004FF0805440F00300C2F89800D4F8B80180690146F1
:20580C0020208847D4F8B801094C806B2168804701202060206800E030BF06F0BFFBF8BDFB
:20582C00B8CB000030110020004003408C2108402C2009402DE9F843044606F0F1FB814627
:20584C002D48021992F8ED10491ECFB2002F82F8ED704BD12B4D05EB84052E78698836F06D
:20586C007F0788461AD1F10911D24FF08054D4F8B801806901464046884704F5DC74206812
:20588C00406B0146404688470228F8D121E000EB8800D0F80011002088471AE04FF0805479
:2058AC00D4F8B801006A014640468847D4F8B801806A014640468847D4F8B801006B01460F
:2058CC004046884701210D4A0D48116001688908FCD306F03F003F2801D0FFF7ABFF687872
:2058EC0000F03F003F2801D0FFF7A4FF484606F0A1FCBDE8F883C046241100202820086050
:20590C002820084030C40000F8B5334D2F49686904F0C6FEFF20A87000242C7068216C706D
:20592C00012001F0ADFF002808BF271C4CD02C46802001222071211D6B2005F057F906F085
:20594C0045FB2348234F0568B7FBF5F002F040F802F0C4FC261D071C36D0022003F040FD80
:20596C0006F02AF960B303F0E5FD58B301200C2101F086FF30B30F203070314601220A20D5
:20598C0005F034F942F21070B0FBF5F002F020F804F10E011020032206F096FA04F10E05A4
:2059AC0040B1287880302081687880306081A8788030A08101220B203146227105F016F93B
:2059CC0006F004FB03F066FF3846F8BD07000080B8CB0000A0860100841700202DE9F04108
:2059EC00064606F01DFB2D4D8046A91991F8ED00421C002881F8ED204AD1294C04EB8604B4
:205A0C00277807F03F003F2801D0FFF7E7FF607800F03F003F2801D0FFF7E0FF668837F068
:205A2C007F001AD1F80911D24FF08054D4F8B801406901463046884704F5DC742068406BC3
:205A4C000146304688470128F8D121E005EB8605D5F80011012088471AE04FF08054D4F899
:205A6C00B801C069014630468847D4F8B801406A014630468847D4F8B801C06A0146304685
:205A8C0088470121074A0848116001688908FCD3404606F0CFFBBDE8F081C0462411002077
:205AAC0030C4000028200860282008402DE9F041314C0546A0781F4616468846ADF1380D0D
:205ACC00012803D0FFF71CFC0120A070B8F1000F09D0C5F8048036B1AE6006F0A1FAE178CE
:205AEC0019B106F0A7FB00203FE0491CC9B2E17006F0A0FB01243FB91D494CC909A84CC0E2
:205B0C0006C909AF80E80600386828607868E860387C2874B8686C746861788A6882F868CF
:205B2C0000B1A8610021A02205F1200001F024FC684600212422082306F0A8FA8DF81840E0
:205B4C0005F1380000216A4604F0CAFE684600212422082306F082FA0649069505F170007C
:205B6C0000226B4604F0F6FB28460EB0BDE8F081ACC90000E1C10000280D0020BCB5324CC4
:205B8C002278074606F018F8002859D042BB3FB306F012F810B30120682101F071FEF8B156
:205BAC0009202071211D01226B2005F01FF8251DA0B13F202870294601226C2005F016F87C
:205BCC000021217050B1E11C1C20012205F00EF820B13A202946012206F076F906F0F6F9A8
:205BEC00F8B2277048B30120682101F049FE48B32078211D012280F0FF0020716C2004F007
:205C0C00F5FF06F0E3F92078C0F3801405F0D4FFB0B103F08FFCA8B101200C2101F030FE66
:205C2C0080B1012C14BF00201120694601228DF800000A2004F0DAFF02E003F02BFEBCBD11
:205C4C0006F0C4F9BCBDC04684170020F8B5304D0C460646A0083CD2A00F51D3294F3868E2
:205C6C00294C20F0020040F400703860032144F8041C41F23003A360012121605022A26055
:205C8C0021604FF4CA60A0602160204844F80C1C06F05AF9A81C0078012803D006F138000D
:205CAC0002F044F9002402203C6004F011FD1120FFF7C0FD307C10B90E20FFF7BBFD284622
:205CCC00144A047211784472D1B11470BC30042114E005F12C06304606F0CCFAFFF7A0F9B1
:205CEC00304606F0C7FA30B924F00204A00F07D34FF0005100E0022105F1BC0005F0C2FEE5
:205D0C00F8BDC046000004600C410440354F0000280D0020842900202DE9F0410D4606463B
:205D2C00B5F1FF3FADF1380D09D045B12B4909AB68462A4605F010F90220694601E00021AA
:205D4C0003200C91264F8DF8340038682024EFF31188371884F31188708980BB002D04BF67
:205D6C0088F31188002036D006F056F8064606F0A5F90B9009A9816104F03AFB384609A931
:205D8C0006F07EF99DF834000025022802D10C9802F000F888F31188304605F0F1F8EFF3C7
:205DAC00118384F311880C9810B106F083FA0C950B98856183F311889DF834000BE0708975
:205DCC00401E70810C9818B106F074FA00200C9088F3118801200EB0BDE8F081D5AC000051
:205DEC00C4CB00002DE9F04115460446A869A060686A98460E4608B92A4800686062286A18
:205E0C00002806BF28480768071C06F015F9EB69A3B9002808BF391C03D03F1841427F1E45
:205E2C0039400246E161606AE169434601F0E0FE2062206AB8B90120BDE8F081002804BF48
:205E4C002362391C0BD01B1841425B1E01EA030020623F1AE869C019E061E0690140E16152
:205E6C004FF0FF306062A6622869E06268692063A86A6063A88DA087A08F012803D10B4906
:205E8C00C868401CC8602046414601F0BBF80346404605F01FFC002814BFD81C0020BDE81E
:205EAC00F081C046D8CB0000DCCB0000401700202DE9F0412B482A490860FDF77FFD2D4C20
:205ECC000025082004F1180141F80C5F401E8D60FAD1241F0B2004F188010A46401E22F8ED
:205EEC000C5BFBD10820204F0880204A8F602049121D22F00303CF1A6762E3612362E66971
:205F0C0004F12008944618460A4601E026F8025BB142FBD8B910E82700EB810121F8045CF0
:205F2C004FF6FC761F8006EA0C0300F1E807D21A676106EA0201EC39A0F8E810284600F066
:205F4C009FFFA061D8F80000606101F079FD03F021FC03F0D1FD05F017FF2846BDE8F0813E
:205F6C00981A0020F1BA000059B200009A29002000420020381200201EF0040F14BFEFF308
:205F8C00098169468869EFF3118102B400B5DFF89CE0F047284A116801EA000010605DF8C7
:205FAC0004EB1EF0080F03D101BC80F31188704704BC1EF0040F14BFEFF309816946A1F10C
:205FCC00200114BF81F309888D464A604FF08070C8611A488861184B1868086040F201100E
:205FEC001860704702B401B4EFF3148100291CBF002282F3148802B402B4DFF834E0F047BF
:20600C0001BC01BC00281CBF022181F3148801BCDFF820E0F04704484FF08051016001BC7F
:20602C0080F3118800BF00BF04ED00E0198A0000B7C100003BC20000D8170020F15F000082
:20604C002DE9FE4F0CAF3D8881460E4608469846144601A904F064FE012808BF01204DD082
:20606C00BDF80400DFF898A042F6021100274FF0FF0B401A2ED048F27F11401A32D0401EB5
:20608C0013D0401E24D10DBBB8F1010F1CD120780A2808DBF1680870F16855468D4221D11D
:2060AC004FF0020B21E080271CE07DB9B8F1020F0AD1F06821880180F1685546681C884255
:2060CC0010D14FF0010B10E00D270BE00B2709E00A2707E00095484643463146224601F0CA
:2060EC0057FF0746BBF1FF0F07D05046001D006818B1016809B1584688473846BDE8FE8F3C
:20610C00401300202DE9F8430D46064668687468B7684FF0000810B9E86800284FD0207806
:20612C00012814D105F07CFFD4F8BC1049B1D4F8C0108D61C4F8C05006F07CF80120BDE8BD
:20614C00F883C4F8BC50C4F8C05006F073F8022004F0D6FA04F160004FF0FF318146FFF75C
:20616C00DBFDB86803F02AFA3046294600F074FD0546B86803F044FA207888B9B5F1FF3F65
:20618C0008D004F17C004FF0FF31FFF7C5FD207A48B111E003202072022004F099FA0BE0B6
:2061AC00B5F1FF3F02D04FF0010805E00320207204F12C0003F046FA484601F0B7FE40462D
:2061CC00BDE8F8832DE9FC470AAF3F8882460C4608469946154601A904F0A2FD012808BFEB
:2061EC0001204AD0BDF80400DFF8948042F60211FF26401A2ED048F26311401A012827D8BC
:20620C0027BBB9F1010F1FD1BDF804104AF666200027884202D12978032913DA2978E268EE
:20622C001170BDF80410884205D0E1684046884218D13E4618E0E1684046401C884211D194
:20624C00012611E080270DE00D270BE00B2709E00A2707E0009750464B4621462A4601F0AE
:20626C0097FE0746FF2E07D04046001D006818B1016809B1304688473846BDE8FC87C04644
:20628C00541500202DE9F0410D462B4C2B4907289046ADF1180D4BD8DFE800F02B3F3D3B60
:2062AC00393734040420ADF80A0003950826ADF8086002A804F07CF9002839D1049800287B
:2062CC00074635D0606804F11701814209D0ADF80060606801900521ADF80210684604F012
:2062EC0067F9384641462A4600F018FA676025701EE0082D1CD1404601680F3421604068E4
:20630C00606015E00C46153408E00C4606E0643404E04F3402E03A3400E0253420460021F2
:20632C00152201F029F8204641462A4600F0F6F906B0BDE8F081C046500F0020C90F002083
:20634C002DE9F041DFF8A480234D071C14D100262E703046FFF712FC44462049606904F089
:20636C009FF960690C21324603F00AFF02F0E4FC05F1240005F082FF022F2AD1AF88022028
:20638C000A26002442F21071287042466E70144BAC70B1FBF7F0A86002F1140000681C70D9
:2063AC000C21012203F0ECFE0F480E490068B1FBF0F001F00DFBFFF7A7FAE888FFF7DEFB33
:2063CC00E888C0F3012003F00BF805F1240005F053FFBDE8F081C046AC1600200700008091
:2063EC0097290020A0860100B8CB0000841700202DE9F0410E46294990461C4606AF8C4680
:20640C0072680878BB8851783F881278002502EB012242F62321521A29D0521E052A18D913
:20642C00921F0CD0263A34D1072F30D8C7F10700984298BF83B2674407F1080121E0B84254
:20644C0025DBC01B9842D8BF83B22380DCF804000BE0F06805F0D8FB80B2B84217DBC01B30
:20646C009842D8BF83B22380F06839180AE0082F0DD8C7F10800984298BF83B207EB0C01F3
:20648C000F31238040461A4600F048F903E0072501E025800A252846BDE8F081500F00202F
:2064AC00B0B501468B681C68E26948682262520824D2D0F8A01049680A685D69D2F804159A
:2064CC00294206D01C68616A21F002016162C2F80455D2F8042519690A4230D01A68516A38
:2064EC0021F001015162D0F8A0205268196912683830C2F8041503F0A5F8B0BD1C68626905
:20650C0022F001026261D0F88870AFB9626822F0020262601C68626A22F003026262D0F8DA
:20652C00A0005A6940681C6900682243C0F80425084604F099FCB0BD0846FEF769FEB0BDB6
:20654C002DE9F04114460F4605F06AFD1FFA80F81F480068007808B905F022F8E7B13868FD
:20656C004FF0FF3518B140280AD3810B08D17E681EB1310A04D0310E02D1B9680F2908D919
:20658C003DB10CB1284620700820FFF753F9002418E07968BA6803E04FF48070012201463D
:2065AC0004F066F80B49012008600B4908684008FCD30A4800684168022088470CB1002193
:2065CC0021700446404605F035FE2046BDE8F08190CA0000A802504208800240CC0100106D
:2065EC00F0B520480127F84201D002F0D7FC204D204F214EBD4206D203CD0478A4003459EB
:20660C00401CA047F6E71D48002800D08047164D164FBD4202D210CDA047FAE7F0BD032515
:20662C001BE0416808300A1C2A400BD11A1C2A40AB4305D0046804300C600431043BF9D159
:20664C00131C05D0047801300C700131013BF9D1021C2A4001D0A84304300368002BE0D10A
:20666C007047C046FFFFFFFF000000000000000000D1000030D10000CCD00000F58C000066
:20668C00B0B5244C2278E1889308084603D3491C401CE18080B2A18852080F4603D3491CF0
:2066AC007F1CA180BFB2062F11DB06280FDB04F10800054605F030FB58B3284605F0DEFDB7
:2066CC000020A080E080607840F001001CE003280BDA38431DD104F10800044605F01CFB3D
:2066EC00B8B1204605F0CAFDB0BD97B904F10800054605F011FB60B1284605F0BFFD0020AD
:20670C00E080607840F0020060700348006801F00DFCB0BDDC18002028050020002A4AD074
:20672C005FEA000C8B071CD1830722D1102A08D370B4103A78C978C0103AFBD270BC10327B
:20674C0038D0042A2CD3082A05D30C2A24BF08C908C008C908C008C908C092072AD0920FD6
:20676C0022E00B780370491C401C521E22D08B07F7D1C30714D18307D8D0121F12D308C9D0
:20678C0003801B0C4380001D121FF8D20AE008C903701B0A43701B0A83701B0AC370001DD5
:2067AC00121FF4D2121D05D00B780370491C401C521EF9D1604670472DE9FE4F0746019241
:2067CC000C9800919B4602902FB1081C03D0101C01D0029810B90220BDE8FE8F1B4801789E
:2067EC0000252C462CE0A00037F800A04FF6FF733E18534520D096F80280B8F1000F1BD033
:20680C000198009A594605F03BFA5FEA000913D05FEA580006D3029B504601214A4600F0EC
:20682C005DFE0543B078800806D33088029B02214A4600F053FE054304480178641CE4B2B4
:20684C00A142D0DC2846BDE8FE8FC0466C0900202DE9F843224D884606464FF0FF3105F123
:20686C0024008146FFF758FA00200CE0FF2909D02A688A4204D905EB8101D1F894700FB192
:20688C00002627E0401CB8F1000F03D018F82010FE29EBD10024346074600127B46011E0FC
:2068AC00FF280ED005EB80000B787268C0F8946007FA03F0104370600A680A49304604F008
:2068CC007FF9641CB8F1000F04D008EB84010878FE28E5D1484601F029FB3046BDE8F8831B
:2068EC0008250020007FC7672DE9F8432020EFF3118780F31188214CA068012105F0D2FC21
:20690C004FF001094FF0000865692168A4F81C906A1A2168A4F81E80461B401A904227D36E
:20692C0087F3118840464519361A4846294600F099FDB042F7D92021EFF3118781F31188F7
:20694C00E18B012903D14046294600F08BFDB0F1FF3F06D0A169801B814238BF081C4119C2
:20696C0001E0A069291804F061FEA4F820902560A4F81C8087F31188BDE8F8830819002010
:20698C00B0B50446A768ADF1280D5FBB0C2000F077FA071C1DD0684600212422082305F06E
:2069AC005DFB002306976A466168ADF810301848059303F055FA386070B90820ADF8240069
:2069CC000C25ADF8265009A803F0F2FD384604F089F86FF0030018E0E06878602069B860BE
:2069EC00A7600AE004F0BBFE0546386804F0DEFC2069B860284605F080F83868616805F05A
:206A0C005DFC386805F0A5F800200AB0B0BDC04661BF0000FEB5044622481646089FC069DF
:206A2C00618250F821201C4800681D4690420DD01B480068009000220191184E029231883E
:206A4C008F23384604F054FE0120FEBD084602F0B5FDA66068696060286AB0F1FF3F08BF17
:206A6C00FF2020740026E660288B00280EBF301C0120E0600146A88C10B141F00200E060E7
:206A8C00204601F019FE0346384604F023FE002814BFD81C301CFEBDA4CB000042CC00002D
:206AAC0090CB0000B81700202DE9F84344688768D4F8A0004568066805F0B2FA81463078FD
:206ACC0088B1287905F076FA012809D128684FF00008C0F80480301D05F0DCFB4046307016
:206AEC002879FEF7A7FE484605F0A4FBD4F89C0004F0ABFC3968486820F00200486004F12A
:206B0C001C0005F0C7FB04F1380005F0E1FB387BFEF790FE2078002518B904F16C0005F07E
:206B2C00D5FB04F1C40004F0A1FB05F079FA84F8D95005F07FFBBDE8F88370472DE99843EC
:206B4C0005F06EFA1F4CDFF87880814604F1E000007850B94446A06801460220884707465E
:206B6C00102002F043FB2FB320E001F05BFB002820460FD1144909683222B2FBF1F101B9A7
:206B8C00012100F13004204605F098FB204604F0E0FF0FE044460022A16880F8E02002203D
:206BAC0088470746102002F021FB1FB1A068014603208847484605F03DFBBDE89883C046DD
:206BCC0080CA000024110020B8CB00002DE9F04107467E68D6F8BC00B8B305F021FA1C4D9F
:206BEC0000248046042305F10C00046002202B6005F0EAFA7368D6F8A81038462246984766
:206C0C00022003F065FD09E08169736822463846C6F8BC109847022003F05AFDD6F8BC00FE
:206C2C00D6F8C0108142EFD12046C6F8A8003472C6F8BC00C6F8C000064B2C6038461C60E6
:206C4C0002F0C8F8404605F0F5FABDE8F081C046042800401004054298B54368C3F8A810BE
:206C6C000868C3F8AC004868C3F8B0008868C3F8B400C8681A49C3F8B8001848D3F8B07066
:206C8C008FB9D3F8A820127C520042F001020260022018720A68D20916D2D3F8B820022AE6
:206CAC0016D30B2215E0D3F8A820127C012752000260D3F8AC201F72541CC3F8AC401278F7
:206CCC0082600868C00902D34FF0FF3098BD022003220A6005F078FA002098BD0028004000
:206CEC00042800407FB5214C207E012802D9401F20D024E0012803D104F05EFF051C0DD03A
:206D0C00207E617E00F0BCFD051C07D0207FA27E694605F0D9F8054605F058F9012D0ED078
:206D2C00A27EFF210020824209DD00F80D10401CC0B2F8E7E169A27E6846FFF7EFFCA57E5F
:206D4C00261D684631462A4604F0AEF960B1304669462A46FFF7E2FCA17E00206A4602F059
:206D6C008FFE6069401C606100907FBDEC17002070B51E4DAC68064604F088FD4FF47A710E
:206D8C00001B4843030C04F00BF82969401A48BF404240F6B8319B19994210D306280EDA1F
:206DAC00E9688C420BD8286848B1114A091B51438A0C02EB1141884288BF011C08E00D49E8
:206DCC00486840080ED208687D2100F0FF004143C82905D3B1F57A6F88BF4FF47A6103E0AE
:206DEC00C82101E04FF4FA61084670BD6829002040420F00AC3F00502DE9FC4108AF38885D
:206E0C001D4690460E46002818BF0B2033D10846694603F085FF012804D100202880012050
:206E2C00BDE8FC81BDF800004AF601410024401A16D0401E0BD0401E1CBF2C800A2419D153
:206E4C0002202880F06800884146088012E005202880F068026841460A600079087109E020
:206E6C00FFF740FF0548083002782A80F1684046FFF754FC2046BDE8FC81C046E013002062
:206E8C00F8B5001D84B214F0030002D0241A241DA4B204F064FC1A4A102C014657691161CB
:206EAC00C8BF9769388800221646C30BDD0319D126B984420ADD3A46012617E01388C318C9
:206ECC009BB29C42138011DC174618469FB1001B80B20428B4BF3C88385344F400443C807D
:206EEC003F1D08E080F40040002680B2C71938880028DAD10027084604F0FFFD3846F8BD2B
:206F0C0034120020F0B5002124220823ADF1240D684605F0BBF8164D012739466A468DF864
:206F2C00187005F1140003F0DBFC124C2068B0F1FF3F0FD10020104E206004E0C968884762
:206F4C002068401C2060810001EBC001701871580029F3D104F052FC2F7304F04BF8002614
:206F6C00074C06492860FF20087009B02670F0BDD0280020F416002034C90000952900202B
:206F8C0094290020B0B51D481D4AC1691548C2F8081D07681448D2F8083D98420ED06FB1BF
:206FAC00124B1B6800240F2C2CBF1D1C0568001D641C0D607F1E01F10401F4D10D48D2F873
:206FCC000C7D0B4D0168202427F47F4000EB01202918C2F80C1D084B82F8224D1868C2F897
:206FEC00140DB0BD94CB000010100000A4CB00000000FA05A8CB00009CCB0000B817002041
:20700C0000E000E070B50D461B4A1A4904462B4603F023FD2061284604F05CFB40BB184801
:20702C0001220021A568036822751448A161002D18D4A1688A408069A168E26005F014F872
:20704C00206404F0E9FEEFF311850646202080F31188204604F022FD85F31188304603F0C2
:20706C008FFF05E0E160C0182146206404F008FB002070BDC5B60000A99C00004017002012
:20708C00CCCB0000F8B50E4605461446A969EA691F462046FFF742FB64602FB1EA692046E7
:2070AC003946082302F032F9E468D6B9E8686969AA68079B05F014F8071C08BF002020D051
:2070CC0005F002F869683960696849687960696849680F6069684F6004F0A6FE07F10806E1
:2070EC0005E06A6930460021083A00F045F92868B0F1FF3F18BF3060286908B1616831505B
:20710C003046F8BDF8B50E46044604F06DFE0546304603F081FD071C03D1284603F04EF9BD
:20712C0028E0F87F10F0070F1DD114487968884202D079682166786002214FF0E04204F12E
:20714C00580080E80600284603F038F904F138004FF0FF31FEF7E0FD04F168070020206653
:20716C0097E80300F8BD284603F028F9F87F10F0070FFBD102200021F8BDC046F58F00006F
:20718C002DE9F041074603204FF00808ADF1180D042401901546ADF800800E46ADF80240A6
:2071AC00684603F005FA00280CBF029B002312498868EBB11F705E70ADF80C800C22ADF828
:2071CC000E4006461F469D700D69049203A803F0EFF950B9059941B18F60284604F050FAD1
:2071EC0036B1304600F0A2FE02E0384604F02AFB06B0BDE8F081C046200500201CB5042011
:20720C0004F06CF9022818D0032816D016480068C0F38150032814BF41F288324FF47A7282
:20722C001248144C016854342046B2FBF1F105F045F8204604F08DFC1CBD03200C4C0090A9
:20724C0000214FF040521C23204601F087FF012000214FF4007209230090204601F07EFF8D
:20726C00022003F035FA1CBDB43F0050B8CB000000A00C40241100202DE9FF410E460546E9
:20728C001A4C7188E08A81420CDCB188814209DBF088218B884205D13089618B884208BF94
:2072AC0018271FD0052002F055FB77888046F188B388ADF80270A08AADF806100C4AADF8BD
:2072CC0000003789ADF8043011216846ADF8087003F0C1F8071C05D1A57304F1F0004146E3
:2072EC0002F032FD38460090BDE8FF816C09002029C20000F8B504F093FE1C4C0746A06DBA
:20730C0010F4602F27D0A06D400CC6B2700807D2B00803D2F00828BF022602E0012600E038
:20732C000026751D68B201F01DFBA36D06F111010120884023EA00013846A16504F07AFF65
:20734C0004EB8600C76C4FB1A06C294600224FF00063B84702E0384604F06CFFA06D20B19E
:20736C0004F1F000002104F08DFBF8BD280D0020002213460A46194671B510F0030F0BD038
:20738C00002A82BF00F8011BB2F1010210F0030FF6D1002A08BF71BD11F0FF0141EA012176
:2073AC00042A18D341EA0141082A0FD30E46102A08D30C460D46B2F10F0312F00F0272C01F
:2073CC00103BFCD812F0080F18BF42C012F0040F18BF40F8041B12F0020F18BF20F8021B2E
:2073EC0012F0010F18BF017071BDFEE7F8B586687568174995F88D3051F8232015491140B7
:20740C00154AA2F150073F684FF0010C43EA01040CFA03F1394218BF44F4800412686146C9
:20742C009940114218BF44F4000495F88D1003F037F90B48094920430840814207D1D5F8FC
:20744C00880008B1042101743046FDF7E1FEF8BD00100840007F077FD02002400000068032
:20746C000000F8FF2DE9F04780461A481A4C00682418204604F026FF0E464FF0FF374FF003
:20748C00000A814621E04D46284604F01DFF8146A88A012819D1B8F1010F0ED1E868864241
:2074AC000BD12869002808BFA5F814A002D0E9684018E860A969E8698847A88A012804D1EE
:2074CC00E868801B874288BF071C4C45DBD13846BDE8F087B4CB0000081900202DE9F041A4
:2074EC000E4615461C4680464FF6FF71ADF1200D06AA03F0D7FF024605922AB30020009044
:20750C00BDF81800FF270DF112032946019040460297A047041C12D16889ADF81000700832
:20752C0004D3404604A904F00DF906E01D20009004A93B46404601F035FE041C05D004A80F
:20754C001B2103F0BDFF00E01524204608B0BDE8F081704738B5054601201A4C68712879F7
:20756C00B0B904F0FCF82178002904BF6FF00704051C15D0491EC9B2217039B904F0BDFAA9
:20758C00606803F025FA0020687118E0054613E004F0E5F805462078FF2805D16FF00604BC
:2075AC00284604F0AAFA0BE0401CC0B20128207002D1606803F023FA284604F09EFA00247E
:2075CC00204638BD0C1A002070B50646B079F4680B28A4F10C042CDA30790B2829DA04F057
:2075EC00BEF8154DB27991000C3501EBC20169184968E1B104F081FA30792071B079607154
:20760C00307AA071B179880000EBC1002818F1684068083003F07CFAB179880000EBC10005
:20762C002D186868406800F081FC002070BD04F064FA6FF0020070BDB012002038B51949B6
:20764C001A4C00204822C1F8F30F94F8E200C1F8FF2F20B3012817D0022807D003281ED120
:20766C0051F8310C00F05EF80B2016E051F8315C2846FCF7BBF840F2FF50A84202D8801C46
:20768C00A842F1D2082008E051F8310C00F010FD054800780028E7D0052084F8E400FCF782
:2076AC00FFFC38BD39400C408ECA00002411002010B51A4CF9B1C91E0FD0481E2DD1042039
:2076CC0004F05CFA20B92046017841F002011FE02046017801F0FD011AE0032004F04EFA42
:2076EC0020B92046017801F0FB0111E02046017841F004010CE0002004F040FA20B920465A
:20770C00017841F0010103E02046017801F0FE0101700348006800F009FC10BDDC18002005
:20772C002805002038B51A4CA0F5C060D4F8B810C4F8D4000029B8BF49420028B8BF404278
:20774C00814220DAB4F8BC00124D30214FF47F4208230090284601F001FDB4F8C00004219B
:20776C004FF4F80212230090284601F0F7FCB4F8D00020214FF440620A230090284601F0EB
:20778C00EDFC012000E0002084F8D80038BDC0462411002000A00C402DE9F8438146EFF349
:2077AC001188202080F31188174D154C134F012605F11C000660A4F114000660F86A016A36
:2077CC0014208847D9F81000810C14BF000C042020603868026823210020904709480660AD
:2077EC0054F8180C20F4C02040F4803044F8180C2E6088F31188BDE8F883C0468401001078
:20780C001820094080022443000024432DE9FC4117460E4605464FF0020800F0A7FC18BB8D
:20782C0003F04AF900BB05F0FF04C4F58074B44288BF341C8DF800808DF80350280C8DF883
:20784C000100280A8DF8020004F076FA6846042102F086FF361B651920B93846214602F035
:20786C007FFF20B104F060FA0020BDE8FC8104F05BFAE719002ED0D10120BDE8FC81FEE7DD
:20788C0070B50D461549194C134A09680646241F04F11400B2FBF1F1FEF73EFA002808BF90
:2078AC00002017D00E4805700E4D20682978B1420CD02E7004F02BFC03F0A0FF2878012883
:2078CC0004BF0948206103F095FB2060002100B10121084670BDC04620A10700B8CB000044
:2078EC00952900209429002040CC0000D42800202DE9FC41194E052706F11400002506F18C
:20790C001C0420601022377606F120087576294675610420B0764046FFF72EFD10212846FD
